{
  "contractName": "Certificate",
  "abi": [
    {
      "anonymous": false,
      "inputs": [
        {
          "indexed": true,
          "internalType": "bytes32",
          "name": "certId",
          "type": "bytes32"
        },
        {
          "indexed": false,
          "internalType": "string",
          "name": "studentName",
          "type": "string"
        },
        {
          "indexed": false,
          "internalType": "string",
          "name": "course",
          "type": "string"
        },
        {
          "indexed": false,
          "internalType": "uint256",
          "name": "issueDate",
          "type": "uint256"
        },
        {
          "indexed": false,
          "internalType": "address",
          "name": "issuer",
          "type": "address"
        }
      ],
      "name": "CertificateIssued",
      "type": "event"
    },
    {
      "inputs": [
        {
          "internalType": "bytes32",
          "name": "",
          "type": "bytes32"
        }
      ],
      "name": "certificates",
      "outputs": [
        {
          "internalType": "string",
          "name": "studentName",
          "type": "string"
        },
        {
          "internalType": "string",
          "name": "course",
          "type": "string"
        },
        {
          "internalType": "uint256",
          "name": "issueDate",
          "type": "uint256"
        },
        {
          "internalType": "address",
          "name": "issuer",
          "type": "address"
        }
      ],
      "stateMutability": "view",
      "type": "function",
      "constant": true
    },
    {
      "inputs": [
        {
          "internalType": "string",
          "name": "studentName",
          "type": "string"
        },
        {
          "internalType": "string",
          "name": "course",
          "type": "string"
        }
      ],
      "name": "issueCertificate",
      "outputs": [
        {
          "internalType": "bytes32",
          "name": "",
          "type": "bytes32"
        }
      ],
      "stateMutability": "nonpayable",
      "type": "function"
    },
    {
      "inputs": [
        {
          "internalType": "bytes32",
          "name": "certId",
          "type": "bytes32"
        }
      ],
      "name": "getCertificate",
      "outputs": [
        {
          "internalType": "string",
          "name": "",
          "type": "string"
        },
        {
          "internalType": "string",
          "name": "",
          "type": "string"
        },
        {
          "internalType": "uint256",
          "name": "",
          "type": "uint256"
        },
        {
          "internalType": "address",
          "name": "",
          "type": "address"
        }
      ],
      "stateMutability": "view",
      "type": "function",
      "constant": true
    }
  ],
  "bytecode": "0x608060405234801561000f575f80fd5b50610bf38061001d5f395ff3fe608060405234801561000f575f80fd5b506004361061003f575f3560e01c8063211bbe7114610043578063742f068814610073578063f333fe08146100a6575b5f80fd5b61005d60048036038101906100589190610679565b6100d9565b60405161006a9190610707565b60405180910390f35b61008d6004803603810190610088919061074a565b610212565b60405161009d9493929190610846565b60405180910390f35b6100c060048036038101906100bb919061074a565b610368565b6040516100d09493929190610846565b60405180910390f35b5f8083836040516020016100ee9291906108d1565b60405160208183030381529060405280519060200120905060405180608001604052808581526020018481526020014281526020013373ffffffffffffffffffffffffffffffffffffffff168152505f808381526020019081526020015f205f820151815f0190816101609190610aee565b5060208201518160010190816101769190610aee565b50604082015181600201556060820151816003015f6101000a81548173ffffffffffffffffffffffffffffffffffffffff021916908373ffffffffffffffffffffffffffffffffffffffff160217905550905050807f3cc9b7a8c431bab8de87e077e4f4851915d5e936c51c2008e5d95bb384b2e298858542336040516102009493929190610846565b60405180910390a28091505092915050565b5f602052805f5260405f205f91509050805f01805461023090610921565b80601f016020809104026020016040519081016040528092919081815260200182805461025c90610921565b80156102a75780601f1061027e576101008083540402835291602001916102a7565b820191905f5260205f20905b81548152906001019060200180831161028a57829003601f168201915b5050505050908060010180546102bc90610921565b80601f01602080910402602001604051908101604052809291908181526020018280546102e890610921565b80156103335780601f1061030a57610100808354040283529160200191610333565b820191905f5260205f20905b81548152906001019060200180831161031657829003601f168201915b505050505090806002015490806003015f9054906101000a900473ffffffffffffffffffffffffffffffffffffffff16905084565b6060805f805f805f8781526020019081526020015f206040518060800160405290815f8201805461039890610921565b80601f01602080910402602001604051908101604052809291908181526020018280546103c490610921565b801561040f5780601f106103e65761010080835404028352916020019161040f565b820191905f5260205f20905b8154815290600101906020018083116103f257829003601f168201915b5050505050815260200160018201805461042890610921565b80601f016020809104026020016040519081016040528092919081815260200182805461045490610921565b801561049f5780601f106104765761010080835404028352916020019161049f565b820191905f5260205f20905b81548152906001019060200180831161048257829003601f168201915b5050505050815260200160028201548152602001600382015f9054906101000a900473ffffffffffffffffffffffffffffffffffffffff1673ffffffffffffffffffffffffffffffffffffffff1673ffffffffffffffffffffffffffffffffffffffff16815250509050805f01518160200151826040015183606001519450945094509450509193509193565b5f604051905090565b5f80fd5b5f80fd5b5f80fd5b5f80fd5b5f601f19601f8301169050919050565b7f4e487b71000000000000000000000000000000000000000000000000000000005f52604160045260245ffd5b61058b82610545565b810181811067ffffffffffffffff821117156105aa576105a9610555565b5b80604052505050565b5f6105bc61052c565b90506105c88282610582565b919050565b5f67ffffffffffffffff8211156105e7576105e6610555565b5b6105f082610545565b9050602081019050919050565b828183375f83830152505050565b5f61061d610618846105cd565b6105b3565b90508281526020810184848401111561063957610638610541565b5b6106448482856105fd565b509392505050565b5f82601f8301126106605761065f61053d565b5b813561067084826020860161060b565b91505092915050565b5f806040838503121561068f5761068e610535565b5b5f83013567ffffffffffffffff8111156106ac576106ab610539565b5b6106b88582860161064c565b925050602083013567ffffffffffffffff8111156106d9576106d8610539565b5b6106e58582860161064c565b9150509250929050565b5f819050919050565b610701816106ef565b82525050565b5f60208201905061071a5f8301846106f8565b92915050565b610729816106ef565b8114610733575f80fd5b50565b5f8135905061074481610720565b92915050565b5f6020828403121561075f5761075e610535565b5b5f61076c84828501610736565b91505092915050565b5f81519050919050565b5f82825260208201905092915050565b5f5b838110156107ac578082015181840152602081019050610791565b5f8484015250505050565b5f6107c182610775565b6107cb818561077f565b93506107db81856020860161078f565b6107e481610545565b840191505092915050565b5f819050919050565b610801816107ef565b82525050565b5f73ffffffffffffffffffffffffffffffffffffffff82169050919050565b5f61083082610807565b9050919050565b61084081610826565b82525050565b5f6080820190508181035f83015261085e81876107b7565b9050818103602083015261087281866107b7565b905061088160408301856107f8565b61088e6060830184610837565b95945050505050565b5f81905092915050565b5f6108ab82610775565b6108b58185610897565b93506108c581856020860161078f565b80840191505092915050565b5f6108dc82856108a1565b91506108e882846108a1565b91508190509392505050565b7f4e487b71000000000000000000000000000000000000000000000000000000005f52602260045260245ffd5b5f600282049050600182168061093857607f821691505b60208210810361094b5761094a6108f4565b5b50919050565b5f819050815f5260205f209050919050565b5f6020601f8301049050919050565b5f82821b905092915050565b5f600883026109ad7fffffffffffffffffffffffffffffffffffffffffffffffffffffffffffffffff82610972565b6109b78683610972565b95508019841693508086168417925050509392505050565b5f819050919050565b5f6109f26109ed6109e8846107ef565b6109cf565b6107ef565b9050919050565b5f819050919050565b610a0b836109d8565b610a1f610a17826109f9565b84845461097e565b825550505050565b5f90565b610a33610a27565b610a3e818484610a02565b505050565b5b81811015610a6157610a565f82610a2b565b600181019050610a44565b5050565b601f821115610aa657610a7781610951565b610a8084610963565b81016020851015610a8f578190505b610aa3610a9b85610963565b830182610a43565b50505b505050565b5f82821c905092915050565b5f610ac65f1984600802610aab565b1980831691505092915050565b5f610ade8383610ab7565b9150826002028217905092915050565b610af782610775565b67ffffffffffffffff811115610b1057610b0f610555565b5b610b1a8254610921565b610b25828285610a65565b5f60209050601f831160018114610b56575f8415610b44578287015190505b610b4e8582610ad3565b865550610bb5565b601f198416610b6486610951565b5f5b82811015610b8b57848901518255600182019150602085019450602081019050610b66565b86831015610ba85784890151610ba4601f891682610ab7565b8355505b6001600288020188555050505b50505050505056fea2646970667358221220ebb65212d130cf5a88f88d32527b7b8ef7bc534c8f8d019c4779b3bb6c48128d64736f6c63430008150033",
  "immutableReferences": {},
  "source": "// SPDX-License-Identifier: MIT\r\npragma solidity ^0.8.0;\r\n\r\ncontract Certificate {\r\n    struct Cert {\r\n        string studentName;\r\n        string course;\r\n        uint256 issueDate;\r\n        address issuer;\r\n    }\r\n\r\n    mapping(bytes32 => Cert) public certificates;\r\n\r\n    event CertificateIssued(bytes32 indexed certId, string studentName, string course, uint256 issueDate, address issuer);\r\n\r\n    function issueCertificate(string memory studentName, string memory course) public returns (bytes32) {\r\n        bytes32 certId = keccak256(abi.encodePacked(studentName, course));\r\n        certificates[certId] = Cert(studentName, course, block.timestamp, msg.sender);\r\n        \r\n        emit CertificateIssued(certId, studentName, course, block.timestamp, msg.sender);\r\n\r\n        return certId;\r\n    }\r\n\r\n    function getCertificate(bytes32 certId) public view returns (string memory, string memory, uint256, address) {\r\n        Cert memory cert = certificates[certId];\r\n        return (cert.studentName, cert.course, cert.issueDate, cert.issuer);\r\n    }\r\n}\r\n",
  "sourcePath": "C:\\Users\\Magesh\\OneDrive\\Desktop\\cert\\certificate-dapp\\contracts\\Certificate.sol",
  "compiler": {
    "name": "solc",
    "version": "0.8.21+commit.d9974bed.Emscripten.clang"
  },
  "schemaVersion": "3.4.16",
  "updatedAt": "2025-04-19T19:54:21.780Z",
  "networkType": "ethereum",
  "devdoc": {
    "kind": "dev",
    "methods": {},
    "version": 1
  },
  "userdoc": {
    "kind": "user",
    "methods": {},
    "version": 1
  }
}